{
	"_format": "hh-sol-artifact-1",
	"contractName": "Encode",
	"sourceName": "contracts/Encode.sol",
	"abi": [
		{
			"inputs": [],
			"stateMutability": "nonpayable",
			"type": "constructor"
		},
		{
			"anonymous": false,
			"inputs": [
				{
					"indexed": true,
					"internalType": "address",
					"name": "owner",
					"type": "address"
				},
				{
					"indexed": true,
					"internalType": "address",
					"name": "approved",
					"type": "address"
				},
				{
					"indexed": true,
					"internalType": "uint256",
					"name": "tokenId",
					"type": "uint256"
				}
			],
			"name": "Approval",
			"type": "event"
		},
		{
			"anonymous": false,
			"inputs": [
				{
					"indexed": true,
					"internalType": "address",
					"name": "owner",
					"type": "address"
				},
				{
					"indexed": true,
					"internalType": "address",
					"name": "operator",
					"type": "address"
				},
				{
					"indexed": false,
					"internalType": "bool",
					"name": "approved",
					"type": "bool"
				}
			],
			"name": "ApprovalForAll",
			"type": "event"
		},
		{
			"anonymous": false,
			"inputs": [
				{
					"indexed": true,
					"internalType": "address",
					"name": "sender",
					"type": "address"
				},
				{
					"indexed": false,
					"internalType": "uint256",
					"name": "amount",
					"type": "uint256"
				}
			],
			"name": "Received",
			"type": "event"
		},
		{
			"anonymous": false,
			"inputs": [
				{
					"indexed": true,
					"internalType": "address",
					"name": "from",
					"type": "address"
				},
				{
					"indexed": true,
					"internalType": "address",
					"name": "to",
					"type": "address"
				},
				{
					"indexed": true,
					"internalType": "uint256",
					"name": "tokenId",
					"type": "uint256"
				}
			],
			"name": "Transfer",
			"type": "event"
		},
		{
			"inputs": [
				{
					"internalType": "uint256",
					"name": "tokenId",
					"type": "uint256"
				},
				{
					"internalType": "uint256",
					"name": "requestId",
					"type": "uint256"
				}
			],
			"name": "acceptBuyingRequest",
			"outputs": [],
			"stateMutability": "nonpayable",
			"type": "function"
		},
		{
			"inputs": [
				{
					"internalType": "address",
					"name": "to",
					"type": "address"
				},
				{
					"internalType": "uint256",
					"name": "tokenId",
					"type": "uint256"
				}
			],
			"name": "approve",
			"outputs": [],
			"stateMutability": "nonpayable",
			"type": "function"
		},
		{
			"inputs": [
				{
					"internalType": "address",
					"name": "owner",
					"type": "address"
				}
			],
			"name": "balanceOf",
			"outputs": [
				{
					"internalType": "uint256",
					"name": "",
					"type": "uint256"
				}
			],
			"stateMutability": "view",
			"type": "function"
		},
		{
			"inputs": [
				{
					"internalType": "address",
					"name": "",
					"type": "address"
				}
			],
			"name": "balances",
			"outputs": [
				{
					"internalType": "uint256",
					"name": "",
					"type": "uint256"
				}
			],
			"stateMutability": "view",
			"type": "function"
		},
		{
			"inputs": [
				{
					"internalType": "uint256",
					"name": "tokenId",
					"type": "uint256"
				}
			],
			"name": "burn",
			"outputs": [],
			"stateMutability": "nonpayable",
			"type": "function"
		},
		{
			"inputs": [
				{
					"internalType": "uint256",
					"name": "tokenId",
					"type": "uint256"
				}
			],
			"name": "buyToken",
			"outputs": [],
			"stateMutability": "payable",
			"type": "function"
		},
		{
			"inputs": [
				{
					"internalType": "uint256",
					"name": "",
					"type": "uint256"
				},
				{
					"internalType": "uint256",
					"name": "",
					"type": "uint256"
				}
			],
			"name": "buyingRequests",
			"outputs": [
				{
					"internalType": "uint256",
					"name": "id",
					"type": "uint256"
				},
				{
					"internalType": "address",
					"name": "buyer",
					"type": "address"
				},
				{
					"internalType": "uint256",
					"name": "offer",
					"type": "uint256"
				},
				{
					"internalType": "uint256",
					"name": "timestamp",
					"type": "uint256"
				},
				{
					"internalType": "enum Encode.BuyingRequestStatus",
					"name": "status",
					"type": "uint8"
				}
			],
			"stateMutability": "view",
			"type": "function"
		},
		{
			"inputs": [
				{
					"internalType": "uint256",
					"name": "tokenId",
					"type": "uint256"
				},
				{
					"internalType": "uint256",
					"name": "requestId",
					"type": "uint256"
				}
			],
			"name": "cancelBuyingRequest",
			"outputs": [],
			"stateMutability": "nonpayable",
			"type": "function"
		},
		{
			"inputs": [
				{
					"internalType": "uint256",
					"name": "tokenId",
					"type": "uint256"
				}
			],
			"name": "cancelSellingListing",
			"outputs": [],
			"stateMutability": "nonpayable",
			"type": "function"
		},
		{
			"inputs": [
				{
					"internalType": "uint256",
					"name": "tokenId",
					"type": "uint256"
				}
			],
			"name": "createBuyingRequest",
			"outputs": [],
			"stateMutability": "payable",
			"type": "function"
		},
		{
			"inputs": [
				{
					"internalType": "uint256",
					"name": "tokenId",
					"type": "uint256"
				},
				{
					"internalType": "uint256",
					"name": "price",
					"type": "uint256"
				}
			],
			"name": "createSellingListing",
			"outputs": [],
			"stateMutability": "nonpayable",
			"type": "function"
		},
		{
			"inputs": [
				{
					"internalType": "uint256",
					"name": "tokenId",
					"type": "uint256"
				}
			],
			"name": "getApproved",
			"outputs": [
				{
					"internalType": "address",
					"name": "",
					"type": "address"
				}
			],
			"stateMutability": "view",
			"type": "function"
		},
		{
			"inputs": [
				{
					"internalType": "uint256",
					"name": "tokenId",
					"type": "uint256"
				}
			],
			"name": "getBuyingRequests",
			"outputs": [
				{
					"components": [
						{
							"internalType": "uint256",
							"name": "id",
							"type": "uint256"
						},
						{
							"internalType": "address",
							"name": "buyer",
							"type": "address"
						},
						{
							"internalType": "uint256",
							"name": "offer",
							"type": "uint256"
						},
						{
							"internalType": "uint256",
							"name": "timestamp",
							"type": "uint256"
						},
						{
							"internalType": "enum Encode.BuyingRequestStatus",
							"name": "status",
							"type": "uint8"
						}
					],
					"internalType": "struct Encode.BuyingRequest[]",
					"name": "",
					"type": "tuple[]"
				}
			],
			"stateMutability": "view",
			"type": "function"
		},
		{
			"inputs": [
				{
					"internalType": "uint256",
					"name": "tokenId",
					"type": "uint256"
				}
			],
			"name": "getToken",
			"outputs": [
				{
					"components": [
						{
							"internalType": "uint256",
							"name": "id",
							"type": "uint256"
						},
						{
							"internalType": "string",
							"name": "uri",
							"type": "string"
						},
						{
							"internalType": "address",
							"name": "owner",
							"type": "address"
						},
						{
							"components": [
								{
									"internalType": "uint256",
									"name": "creationDate",
									"type": "uint256"
								},
								{
									"internalType": "string",
									"name": "title",
									"type": "string"
								},
								{
									"internalType": "string",
									"name": "description",
									"type": "string"
								}
							],
							"internalType": "struct Encode.TokenMetadata",
							"name": "metadata",
							"type": "tuple"
						},
						{
							"components": [
								{
									"internalType": "uint256",
									"name": "price",
									"type": "uint256"
								},
								{
									"internalType": "uint256",
									"name": "timestamp",
									"type": "uint256"
								}
							],
							"internalType": "struct Encode.SellingListing",
							"name": "sellingListing",
							"type": "tuple"
						}
					],
					"internalType": "struct Encode.TokenInfo",
					"name": "",
					"type": "tuple"
				}
			],
			"stateMutability": "view",
			"type": "function"
		},
		{
			"inputs": [
				{
					"internalType": "address",
					"name": "addr",
					"type": "address"
				}
			],
			"name": "getTokensOfOwner",
			"outputs": [
				{
					"components": [
						{
							"internalType": "uint256",
							"name": "id",
							"type": "uint256"
						},
						{
							"internalType": "string",
							"name": "uri",
							"type": "string"
						},
						{
							"internalType": "address",
							"name": "owner",
							"type": "address"
						},
						{
							"components": [
								{
									"internalType": "uint256",
									"name": "creationDate",
									"type": "uint256"
								},
								{
									"internalType": "string",
									"name": "title",
									"type": "string"
								},
								{
									"internalType": "string",
									"name": "description",
									"type": "string"
								}
							],
							"internalType": "struct Encode.TokenMetadata",
							"name": "metadata",
							"type": "tuple"
						},
						{
							"components": [
								{
									"internalType": "uint256",
									"name": "price",
									"type": "uint256"
								},
								{
									"internalType": "uint256",
									"name": "timestamp",
									"type": "uint256"
								}
							],
							"internalType": "struct Encode.SellingListing",
							"name": "sellingListing",
							"type": "tuple"
						}
					],
					"internalType": "struct Encode.TokenInfo[]",
					"name": "",
					"type": "tuple[]"
				}
			],
			"stateMutability": "view",
			"type": "function"
		},
		{
			"inputs": [
				{
					"internalType": "address",
					"name": "owner",
					"type": "address"
				},
				{
					"internalType": "address",
					"name": "operator",
					"type": "address"
				}
			],
			"name": "isApprovedForAll",
			"outputs": [
				{
					"internalType": "bool",
					"name": "",
					"type": "bool"
				}
			],
			"stateMutability": "view",
			"type": "function"
		},
		{
			"inputs": [],
			"name": "listTokens",
			"outputs": [
				{
					"components": [
						{
							"internalType": "uint256",
							"name": "id",
							"type": "uint256"
						},
						{
							"internalType": "string",
							"name": "uri",
							"type": "string"
						},
						{
							"internalType": "address",
							"name": "owner",
							"type": "address"
						},
						{
							"components": [
								{
									"internalType": "uint256",
									"name": "creationDate",
									"type": "uint256"
								},
								{
									"internalType": "string",
									"name": "title",
									"type": "string"
								},
								{
									"internalType": "string",
									"name": "description",
									"type": "string"
								}
							],
							"internalType": "struct Encode.TokenMetadata",
							"name": "metadata",
							"type": "tuple"
						},
						{
							"components": [
								{
									"internalType": "uint256",
									"name": "price",
									"type": "uint256"
								},
								{
									"internalType": "uint256",
									"name": "timestamp",
									"type": "uint256"
								}
							],
							"internalType": "struct Encode.SellingListing",
							"name": "sellingListing",
							"type": "tuple"
						}
					],
					"internalType": "struct Encode.TokenInfo[]",
					"name": "",
					"type": "tuple[]"
				}
			],
			"stateMutability": "view",
			"type": "function"
		},
		{
			"inputs": [],
			"name": "name",
			"outputs": [
				{
					"internalType": "string",
					"name": "",
					"type": "string"
				}
			],
			"stateMutability": "view",
			"type": "function"
		},
		{
			"inputs": [
				{
					"internalType": "uint256",
					"name": "tokenId",
					"type": "uint256"
				}
			],
			"name": "ownerOf",
			"outputs": [
				{
					"internalType": "address",
					"name": "",
					"type": "address"
				}
			],
			"stateMutability": "view",
			"type": "function"
		},
		{
			"inputs": [
				{
					"internalType": "address",
					"name": "to",
					"type": "address"
				},
				{
					"internalType": "string",
					"name": "uri",
					"type": "string"
				},
				{
					"internalType": "string",
					"name": "title",
					"type": "string"
				},
				{
					"internalType": "string",
					"name": "description",
					"type": "string"
				}
			],
			"name": "safeMint",
			"outputs": [],
			"stateMutability": "nonpayable",
			"type": "function"
		},
		{
			"inputs": [
				{
					"internalType": "address",
					"name": "_from",
					"type": "address"
				},
				{
					"internalType": "address",
					"name": "_to",
					"type": "address"
				},
				{
					"internalType": "uint256",
					"name": "_tokenId",
					"type": "uint256"
				}
			],
			"name": "safeTransferFrom",
			"outputs": [],
			"stateMutability": "nonpayable",
			"type": "function"
		},
		{
			"inputs": [
				{
					"internalType": "address",
					"name": "from",
					"type": "address"
				},
				{
					"internalType": "address",
					"name": "to",
					"type": "address"
				},
				{
					"internalType": "uint256",
					"name": "tokenId",
					"type": "uint256"
				},
				{
					"internalType": "bytes",
					"name": "data",
					"type": "bytes"
				}
			],
			"name": "safeTransferFrom",
			"outputs": [],
			"stateMutability": "nonpayable",
			"type": "function"
		},
		{
			"inputs": [
				{
					"internalType": "uint256",
					"name": "",
					"type": "uint256"
				}
			],
			"name": "sellingListing",
			"outputs": [
				{
					"internalType": "uint256",
					"name": "price",
					"type": "uint256"
				},
				{
					"internalType": "uint256",
					"name": "timestamp",
					"type": "uint256"
				}
			],
			"stateMutability": "view",
			"type": "function"
		},
		{
			"inputs": [
				{
					"internalType": "address",
					"name": "operator",
					"type": "address"
				},
				{
					"internalType": "bool",
					"name": "approved",
					"type": "bool"
				}
			],
			"name": "setApprovalForAll",
			"outputs": [],
			"stateMutability": "nonpayable",
			"type": "function"
		},
		{
			"inputs": [
				{
					"internalType": "bytes4",
					"name": "interfaceId",
					"type": "bytes4"
				}
			],
			"name": "supportsInterface",
			"outputs": [
				{
					"internalType": "bool",
					"name": "",
					"type": "bool"
				}
			],
			"stateMutability": "view",
			"type": "function"
		},
		{
			"inputs": [],
			"name": "symbol",
			"outputs": [
				{
					"internalType": "string",
					"name": "",
					"type": "string"
				}
			],
			"stateMutability": "view",
			"type": "function"
		},
		{
			"inputs": [
				{
					"internalType": "uint256",
					"name": "index",
					"type": "uint256"
				}
			],
			"name": "tokenByIndex",
			"outputs": [
				{
					"internalType": "uint256",
					"name": "",
					"type": "uint256"
				}
			],
			"stateMutability": "view",
			"type": "function"
		},
		{
			"inputs": [
				{
					"internalType": "uint256",
					"name": "",
					"type": "uint256"
				}
			],
			"name": "tokenMetadata",
			"outputs": [
				{
					"internalType": "uint256",
					"name": "creationDate",
					"type": "uint256"
				},
				{
					"internalType": "string",
					"name": "title",
					"type": "string"
				},
				{
					"internalType": "string",
					"name": "description",
					"type": "string"
				}
			],
			"stateMutability": "view",
			"type": "function"
		},
		{
			"inputs": [
				{
					"internalType": "address",
					"name": "owner",
					"type": "address"
				},
				{
					"internalType": "uint256",
					"name": "index",
					"type": "uint256"
				}
			],
			"name": "tokenOfOwnerByIndex",
			"outputs": [
				{
					"internalType": "uint256",
					"name": "",
					"type": "uint256"
				}
			],
			"stateMutability": "view",
			"type": "function"
		},
		{
			"inputs": [
				{
					"internalType": "uint256",
					"name": "tokenId",
					"type": "uint256"
				}
			],
			"name": "tokenURI",
			"outputs": [
				{
					"internalType": "string",
					"name": "",
					"type": "string"
				}
			],
			"stateMutability": "view",
			"type": "function"
		},
		{
			"inputs": [],
			"name": "totalSupply",
			"outputs": [
				{
					"internalType": "uint256",
					"name": "",
					"type": "uint256"
				}
			],
			"stateMutability": "view",
			"type": "function"
		},
		{
			"inputs": [
				{
					"internalType": "address",
					"name": "from",
					"type": "address"
				},
				{
					"internalType": "address",
					"name": "to",
					"type": "address"
				},
				{
					"internalType": "uint256",
					"name": "tokenId",
					"type": "uint256"
				}
			],
			"name": "transferFrom",
			"outputs": [],
			"stateMutability": "nonpayable",
			"type": "function"
		},
		{
			"stateMutability": "payable",
			"type": "receive"
		}
	],
	"bytecode": "0x60806040523480156200001157600080fd5b5060405180604001604052806006815260200165456e636f646560d01b81525060405180604001604052806003815260200162454e4360e81b81525081600090816200005e91906200011b565b5060016200006d82826200011b565b505050620001e7565b634e487b7160e01b600052604160045260246000fd5b600181811c90821680620000a157607f821691505b602082108103620000c257634e487b7160e01b600052602260045260246000fd5b50919050565b601f8211156200011657600081815260208120601f850160051c81016020861015620000f15750805b601f850160051c820191505b818110156200011257828155600101620000fd565b5050505b505050565b81516001600160401b0381111562000137576200013762000076565b6200014f816200014884546200008c565b84620000c8565b602080601f8311600181146200018757600084156200016e5750858301515b600019600386901b1c1916600185901b17855562000112565b600085815260208120601f198616915b82811015620001b85788860151825594840194600190910190840162000197565b5085821015620001d75787850151600019600388901b60f8161c191681555b5050505050600190811b01905550565b613c3a80620001f76000396000f3fe6080604052600436106101e75760003560e01c8063596fbfb011610102578063a9286ebc11610095578063d1b3405211610064578063d1b34052146105ef578063e4b50cb814610638578063e985e9c514610665578063ee8a0aed146106ae57600080fd5b8063a9286ebc1461056f578063b88d4fde1461058f578063c09a8151146105af578063c87b56dd146105cf57600080fd5b806370a08231116100d157806370a08231146105055780637488ff761461052557806395d89b411461053a578063a22cb4651461054f57600080fd5b8063596fbfb01461045c5780635de6dc55146104895780636352211e146104b65780636914db60146104d657600080fd5b806324f763d91161017a5780632f745c59116101495780632f745c59146103dc57806342842e0e146103fc57806342966c681461041c5780634f6ccce71461043c57600080fd5b806324f763d91461036957806327e235e3146103895780632d296bf1146103b65780632d484953146103c957600080fd5b8063095ea7b3116101b6578063095ea7b3146102d957806318160ddd146102f95780631f8276b81461031857806323b872dd1461034957600080fd5b806301ffc9a71461022857806303a80dfb1461025d57806306fdde031461027f578063081812fc146102a157600080fd5b366102235760405134815233907f88a5966d370b9919b20f3e2c13ff65706f196a4e32cc2c12bf57088f885258749060200160405180910390a2005b600080fd5b34801561023457600080fd5b50610248610243366004613331565b6106ce565b60405190151581526020015b60405180910390f35b34801561026957600080fd5b5061027d610278366004613416565b6106df565b005b34801561028b57600080fd5b50610294610750565b60405161025491906134ff565b3480156102ad57600080fd5b506102c16102bc366004613512565b6107e2565b6040516001600160a01b039091168152602001610254565b3480156102e557600080fd5b5061027d6102f436600461352b565b610809565b34801561030557600080fd5b506008545b604051908152602001610254565b34801561032457600080fd5b50610338610333366004613555565b610923565b6040516102549594939291906135af565b34801561035557600080fd5b5061027d6103643660046135ea565b61097e565b34801561037557600080fd5b5061027d610384366004613555565b6109b0565b34801561039557600080fd5b5061030a6103a4366004613626565b600d6020526000908152604090205481565b61027d6103c4366004613512565b610aa9565b61027d6103d7366004613512565b610d87565b3480156103e857600080fd5b5061030a6103f736600461352b565b611091565b34801561040857600080fd5b5061027d6104173660046135ea565b611127565b34801561042857600080fd5b5061027d610437366004613512565b61115e565b34801561044857600080fd5b5061030a610457366004613512565b61118f565b34801561046857600080fd5b5061047c610477366004613512565b611222565b6040516102549190613641565b34801561049557600080fd5b506104a96104a4366004613626565b611463565b6040516102549190613761565b3480156104c257600080fd5b506102c16104d1366004613512565b6116d3565b3480156104e257600080fd5b506104f66104f1366004613512565b611733565b604051610254939291906137c3565b34801561051157600080fd5b5061030a610520366004613626565b611866565b34801561053157600080fd5b506104a96118ec565b34801561054657600080fd5b50610294611b5a565b34801561055b57600080fd5b5061027d61056a3660046137ee565b611b69565b34801561057b57600080fd5b5061027d61058a366004613555565b611b78565b34801561059b57600080fd5b5061027d6105aa36600461382a565b611e55565b3480156105bb57600080fd5b5061027d6105ca366004613512565b611e87565b3480156105db57600080fd5b506102946105ea366004613512565b611f2f565b3480156105fb57600080fd5b5061062361060a366004613512565b600f602052600090815260409020805460019091015482565b60408051928352602083019190915201610254565b34801561064457600080fd5b50610658610653366004613512565b611f3a565b604051610254919061389a565b34801561067157600080fd5b506102486106803660046138ad565b6001600160a01b03918216600090815260056020908152604080832093909416825291909152205460ff1690565b3480156106ba57600080fd5b5061027d6106c9366004613555565b6120ff565b60006106d98261234c565b92915050565b60006106ea600b5490565b90506106fa600b80546001019055565b6107048582612371565b61070e818561238b565b600081815260106020526040902042815560010161072c8482613960565b5060008181526010602052604090206002016107488382613960565b505050505050565b60606000805461075f906138e0565b80601f016020809104026020016040519081016040528092919081815260200182805461078b906138e0565b80156107d85780601f106107ad576101008083540402835291602001916107d8565b820191906000526020600020905b8154815290600101906020018083116107bb57829003601f168201915b5050505050905090565b60006107ed8261241e565b506000908152600460205260409020546001600160a01b031690565b6000610814826116d3565b9050806001600160a01b0316836001600160a01b0316036108865760405162461bcd60e51b815260206004820152602160248201527f4552433732313a20617070726f76616c20746f2063757272656e74206f776e656044820152603960f91b60648201526084015b60405180910390fd5b336001600160a01b03821614806108a257506108a28133610680565b6109145760405162461bcd60e51b815260206004820152603d60248201527f4552433732313a20617070726f76652063616c6c6572206973206e6f7420746f60448201527f6b656e206f776e6572206f7220617070726f76656420666f7220616c6c000000606482015260840161087d565b61091e838361247d565b505050565b600e602052816000526040600020818154811061093f57600080fd5b6000918252602090912060059091020180546001820154600283015460038401546004909401549295506001600160a01b039091169350919060ff1685565b610989335b826124eb565b6109a55760405162461bcd60e51b815260040161087d90613a20565b61091e83838361256a565b336109ba836116d3565b6001600160a01b031614610a215760405162461bcd60e51b815260206004820152602860248201527f596f752063616e6e6f742073656c6c204e465473207468617420796f7520646f604482015267103737ba1037bbb760c11b606482015260840161087d565b60008111610a715760405162461bcd60e51b815260206004820152601c60248201527f5072696365206d7573742062652067726561746572207468616e203000000000604482015260640161087d565b610a7b3083610809565b6040805180820182529182524260208084019182526000948552600f90529220905181559051600190910155565b33610ab3826116d3565b6001600160a01b031603610b095760405162461bcd60e51b815260206004820152601b60248201527f596f752063616e6e6f742062757920796f7572206f776e204e46540000000000604482015260640161087d565b6000818152600f6020526040902054610b645760405162461bcd60e51b815260206004820152601860248201527f54686973204e4654206973206e6f7420666f722073616c650000000000000000604482015260640161087d565b6000818152600f6020526040902054341015610bd35760405162461bcd60e51b815260206004820152602860248201527f596f75206d7573742073656e6420656e6f7567682045544820746f20627579206044820152671d1a1a5cc813919560c21b606482015260840161087d565b6000610bde826116d3565b6000838152600e602052604081209192503391905b8154811015610d29576000828281548110610c1057610c10613a6d565b600091825260209091206004600590920201015460ff166002811115610c3857610c38613577565b03610d17576002828281548110610c5157610c51613a6d565b60009182526020909120600460059092020101805460ff19166001836002811115610c7e57610c7e613577565b0217905550818181548110610c9557610c95613a6d565b906000526020600020906005020160010160009054906101000a90046001600160a01b03166001600160a01b03166108fc838381548110610cd857610cd8613a6d565b9060005260206000209060050201600201549081150290604051600060405180830381858888f19350505050158015610d15573d6000803e3d6000fd5b505b80610d2181613a99565b915050610bf3565b50610d3583838661256a565b6000848152600f6020526040808220828155600101829055516001600160a01b038516913480156108fc02929091818181858888f19350505050158015610d80573d6000803e3d6000fd5b5050505050565b33610d91826116d3565b6001600160a01b031603610de75760405162461bcd60e51b815260206004820152601b60248201527f596f752063616e6e6f742062757920796f7572206f776e204e46540000000000604482015260640161087d565b60003411610e375760405162461bcd60e51b815260206004820152601c60248201527f4f66666572206d7573742062652067726561746572207468616e203000000000604482015260640161087d565b6000818152600e60205260408120905b8154811015610f4857336001600160a01b0316828281548110610e6c57610e6c613a6d565b60009182526020909120600160059092020101546001600160a01b031603610f36576000828281548110610ea257610ea2613a6d565b600091825260209091206004600590920201015460ff166002811115610eca57610eca613577565b03610f365760405162461bcd60e51b815260206004820152603660248201527f596f7520616c7265616479206861766520612070656e64696e6720627579696e60448201527519c81c995c5d595cdd08199bdc881d1a1a5cc813919560521b606482015260840161087d565b80610f4081613a99565b915050610e47565b5060405130903480156108fc02916000818181858888f19350505050158015610f75573d6000803e3d6000fd5b50336000908152600d602052604081208054349290610f95908490613ab2565b9091555050600c54610fab600c80546001019055565b600e60008481526020019081526020016000206040518060a00160405280838152602001336001600160a01b0316815260200134815260200142815260200160006002811115610ffd57610ffd613577565b9052815460018082018455600093845260209384902083516005909302019182559282015181840180546001600160a01b0319166001600160a01b039092169190911790556040820151600280830191909155606083015160038301556080830151600483018054949593949193909260ff1990921691849081111561108557611085613577565b02179055505050505050565b600061109c83611866565b82106110fe5760405162461bcd60e51b815260206004820152602b60248201527f455243373231456e756d657261626c653a206f776e657220696e646578206f7560448201526a74206f6620626f756e647360a81b606482015260840161087d565b506001600160a01b03919091166000908152600660209081526040808320938352929052205490565b6000818152600e6020526040812061113e916131b0565b6000818152600f602052604081208181556001015561091e8383836126db565b61116733610983565b6111835760405162461bcd60e51b815260040161087d90613a20565b61118c816126f6565b50565b600061119a60085490565b82106111fd5760405162461bcd60e51b815260206004820152602c60248201527f455243373231456e756d657261626c653a20676c6f62616c20696e646578206f60448201526b7574206f6620626f756e647360a01b606482015260840161087d565b6008828154811061121057611210613a6d565b90600052602060002001549050919050565b6000818152600e6020526040812080546060929067ffffffffffffffff81111561124e5761124e61336a565b60405190808252806020026020018201604052801561128757816020015b6112746131d1565b81526020019060019003908161126c5790505b5090506000805b83548110156113ac5760008482815481106112ab576112ab613a6d565b600091825260209091206004600590920201015460ff1660028111156112d3576112d3613577565b0361139a578381815481106112ea576112ea613a6d565b60009182526020918290206040805160a08101825260059093029091018054835260018101546001600160a01b03169383019390935260028084015491830191909152600383015460608301526004830154919291608084019160ff9091169081111561135957611359613577565b600281111561136a5761136a613577565b8152505083838151811061138057611380613a6d565b6020026020010181905250818061139690613a99565b9250505b806113a481613a99565b91505061128e565b5060008167ffffffffffffffff8111156113c8576113c861336a565b60405190808252806020026020018201604052801561140157816020015b6113ee6131d1565b8152602001906001900390816113e65790505b50905060005b828110156114595783818151811061142157611421613a6d565b602002602001015182828151811061143b5761143b613a6d565b6020026020010181905250808061145190613a99565b915050611407565b5095945050505050565b6060600061147083611866565b905060008167ffffffffffffffff81111561148d5761148d61336a565b6040519080825280602002602001820160405280156114c657816020015b6114b3613219565b8152602001906001900390816114ab5790505b50905060005b828110156116cb5760006114e08683611091565b90506000601060008381526020019081526020016000206040518060600160405290816000820154815260200160018201805461151c906138e0565b80601f0160208091040260200160405190810160405280929190818152602001828054611548906138e0565b80156115955780601f1061156a57610100808354040283529160200191611595565b820191906000526020600020905b81548152906001019060200180831161157857829003601f168201915b505050505081526020016002820180546115ae906138e0565b80601f01602080910402602001604051908101604052809291908181526020018280546115da906138e0565b80156116275780601f106115fc57610100808354040283529160200191611627565b820191906000526020600020905b81548152906001019060200180831161160a57829003601f168201915b505050919092525050506000838152600f6020908152604091829020825180840184528154815260019091015481830152825160a08101909352858352929350810161167285611f2f565b8152602001611680856116d3565b6001600160a01b03168152602001838152602001828152508585815181106116aa576116aa613a6d565b602002602001018190525050505080806116c390613a99565b9150506114cc565b509392505050565b6000818152600260205260408120546001600160a01b0316806106d95760405162461bcd60e51b8152602060048201526018602482015277115490cdcc8c4e881a5b9d985b1a59081d1bdad95b88125160421b604482015260640161087d565b60106020526000908152604090208054600182018054919291611755906138e0565b80601f0160208091040260200160405190810160405280929190818152602001828054611781906138e0565b80156117ce5780601f106117a3576101008083540402835291602001916117ce565b820191906000526020600020905b8154815290600101906020018083116117b157829003601f168201915b5050505050908060020180546117e3906138e0565b80601f016020809104026020016040519081016040528092919081815260200182805461180f906138e0565b801561185c5780601f106118315761010080835404028352916020019161185c565b820191906000526020600020905b81548152906001019060200180831161183f57829003601f168201915b5050505050905083565b60006001600160a01b0382166118d05760405162461bcd60e51b815260206004820152602960248201527f4552433732313a2061646472657373207a65726f206973206e6f7420612076616044820152683634b21037bbb732b960b91b606482015260840161087d565b506001600160a01b031660009081526003602052604090205490565b606060006118f960085490565b905060008167ffffffffffffffff8111156119165761191661336a565b60405190808252806020026020018201604052801561194f57816020015b61193c613219565b8152602001906001900390816119345790505b50905060005b82811015611b535760006119688261118f565b9050600060106000838152602001908152602001600020604051806060016040529081600082015481526020016001820180546119a4906138e0565b80601f01602080910402602001604051908101604052809291908181526020018280546119d0906138e0565b8015611a1d5780601f106119f257610100808354040283529160200191611a1d565b820191906000526020600020905b815481529060010190602001808311611a0057829003601f168201915b50505050508152602001600282018054611a36906138e0565b80601f0160208091040260200160405190810160405280929190818152602001828054611a62906138e0565b8015611aaf5780601f10611a8457610100808354040283529160200191611aaf565b820191906000526020600020905b815481529060010190602001808311611a9257829003601f168201915b505050919092525050506000838152600f6020908152604091829020825180840184528154815260019091015481830152825160a081019093528583529293508101611afa85611f2f565b8152602001611b08856116d3565b6001600160a01b0316815260200183815260200182815250858581518110611b3257611b32613a6d565b60200260200101819052505050508080611b4b90613a99565b915050611955565b5092915050565b60606001805461075f906138e0565b611b743383836126ff565b5050565b33611b82836116d3565b6001600160a01b031614611bfe5760405162461bcd60e51b815260206004820152603e60248201527f596f752063616e6e6f742061636365707420627579696e67207265717565737460448201527f7320666f72204e465473207468617420796f7520646f206e6f74206f776e0000606482015260840161087d565b6000828152600e60205260408120905b8154811015611e4f576000828281548110611c2b57611c2b613a6d565b600091825260209091206004600590920201015460ff166002811115611c5357611c53613577565b03611e3d5782828281548110611c6b57611c6b613a6d565b90600052602060002090600502016000015403611d63576001828281548110611c9657611c96613a6d565b60009182526020909120600460059092020101805460ff19166001836002811115611cc357611cc3613577565b0217905550336001600160a01b03166108fc838381548110611ce757611ce7613a6d565b9060005260206000209060050201600201549081150290604051600060405180830381858888f19350505050158015611d24573d6000803e3d6000fd5b50611d5e33838381548110611d3b57611d3b613a6d565b60009182526020909120600160059092020101546001600160a01b031686611127565b611e3d565b6002828281548110611d7757611d77613a6d565b60009182526020909120600460059092020101805460ff19166001836002811115611da457611da4613577565b0217905550818181548110611dbb57611dbb613a6d565b906000526020600020906005020160010160009054906101000a90046001600160a01b03166001600160a01b03166108fc838381548110611dfe57611dfe613a6d565b9060005260206000209060050201600201549081150290604051600060405180830381858888f19350505050158015611e3b573d6000803e3d6000fd5b505b80611e4781613a99565b915050611c0e565b50505050565b611e5f33836124eb565b611e7b5760405162461bcd60e51b815260040161087d90613a20565b611e4f848484846127cd565b33611e91826116d3565b6001600160a01b031614611f0d5760405162461bcd60e51b815260206004820152603f60248201527f596f752063616e6e6f742063616e63656c2073656c6c696e67206c697374696e60448201527f677320666f72204e465473207468617420796f7520646f206e6f74206f776e00606482015260840161087d565b611f18600082610809565b6000908152600f6020526040812081815560010155565b60606106d982612800565b611f42613219565b60006010600084815260200190815260200160002060405180606001604052908160008201548152602001600182018054611f7c906138e0565b80601f0160208091040260200160405190810160405280929190818152602001828054611fa8906138e0565b8015611ff55780601f10611fca57610100808354040283529160200191611ff5565b820191906000526020600020905b815481529060010190602001808311611fd857829003601f168201915b5050505050815260200160028201805461200e906138e0565b80601f016020809104026020016040519081016040528092919081815260200182805461203a906138e0565b80156120875780601f1061205c57610100808354040283529160200191612087565b820191906000526020600020905b81548152906001019060200180831161206a57829003601f168201915b505050919092525050506000848152600f6020908152604091829020825180840184528154815260019091015481830152825160a0810190935286835292935081016120d286611f2f565b81526020016120e0866116d3565b6001600160a01b03168152602081019390935260409092015292915050565b6000828152600e60205260408120905b8154811015611e4f578282828154811061212b5761212b613a6d565b9060005260206000209060050201600001540361233a57336001600160a01b031682828154811061215e5761215e613a6d565b60009182526020909120600160059092020101546001600160a01b0316146121ee5760405162461bcd60e51b815260206004820152603960248201527f596f752063616e6e6f742063616e63656c20627579696e67207265717565737460448201527f73207468617420796f7520646964206e6f742063726561746500000000000000606482015260840161087d565b600082828154811061220257612202613a6d565b600091825260209091206004600590920201015460ff16600281111561222a5761222a613577565b146122965760405162461bcd60e51b815260206004820152603660248201527f596f752063616e6e6f742063616e63656c20627579696e67207265717565737460448201527573207468617420617265206e6f742070656e64696e6760501b606482015260840161087d565b60028282815481106122aa576122aa613a6d565b60009182526020909120600460059092020101805460ff191660018360028111156122d7576122d7613577565b0217905550336001600160a01b03166108fc8383815481106122fb576122fb613a6d565b9060005260206000209060050201600201549081150290604051600060405180830381858888f19350505050158015612338573d6000803e3d6000fd5b505b8061234481613a99565b91505061210f565b60006001600160e01b0319821663780e9d6360e01b14806106d957506106d982612908565b611b74828260405180602001604052806000815250612958565b6000828152600260205260409020546001600160a01b03166124065760405162461bcd60e51b815260206004820152602e60248201527f45524337323155524953746f726167653a2055524920736574206f66206e6f6e60448201526d32bc34b9ba32b73a103a37b5b2b760911b606482015260840161087d565b6000828152600a6020526040902061091e8282613960565b6000818152600260205260409020546001600160a01b031661118c5760405162461bcd60e51b8152602060048201526018602482015277115490cdcc8c4e881a5b9d985b1a59081d1bdad95b88125160421b604482015260640161087d565b600081815260046020526040902080546001600160a01b0319166001600160a01b03841690811790915581906124b2826116d3565b6001600160a01b03167f8c5be1e5ebec7d5bd14f71427d1e84f3dd0314c0f7b2291e5b200ac8c7c3b92560405160405180910390a45050565b6000806124f7836116d3565b9050806001600160a01b0316846001600160a01b0316148061253e57506001600160a01b0380821660009081526005602090815260408083209388168352929052205460ff165b806125625750836001600160a01b0316612557846107e2565b6001600160a01b0316145b949350505050565b826001600160a01b031661257d826116d3565b6001600160a01b0316146125a35760405162461bcd60e51b815260040161087d90613ac5565b6001600160a01b0382166126055760405162461bcd60e51b8152602060048201526024808201527f4552433732313a207472616e7366657220746f20746865207a65726f206164646044820152637265737360e01b606482015260840161087d565b612612838383600161298b565b826001600160a01b0316612625826116d3565b6001600160a01b03161461264b5760405162461bcd60e51b815260040161087d90613ac5565b600081815260046020908152604080832080546001600160a01b03199081169091556001600160a01b0387811680865260038552838620805460001901905590871680865283862080546001019055868652600290945282852080549092168417909155905184937fddf252ad1be2c89b69c2b068fc378daa952ba7f163c4a11628f55a4df523b3ef91a4505050565b61091e83838360405180602001604052806000815250611e55565b61118c81612997565b816001600160a01b0316836001600160a01b0316036127605760405162461bcd60e51b815260206004820152601960248201527f4552433732313a20617070726f766520746f2063616c6c657200000000000000604482015260640161087d565b6001600160a01b03838116600081815260056020908152604080832094871680845294825291829020805460ff191686151590811790915591519182527f17307eab39ab6107e8899845ad3d59bd9653f200f220920489ca2b5937696c31910160405180910390a3505050565b6127d884848461256a565b6127e4848484846129d7565b611e4f5760405162461bcd60e51b815260040161087d90613b0a565b606061280b8261241e565b6000828152600a602052604081208054612824906138e0565b80601f0160208091040260200160405190810160405280929190818152602001828054612850906138e0565b801561289d5780601f106128725761010080835404028352916020019161289d565b820191906000526020600020905b81548152906001019060200180831161288057829003601f168201915b5050505050905060006128bb60408051602081019091526000815290565b905080516000036128cd575092915050565b8151156128ff5780826040516020016128e7929190613b5c565b60405160208183030381529060405292505050919050565b61256284612ad8565b60006001600160e01b031982166380ac58cd60e01b148061293957506001600160e01b03198216635b5e139f60e01b145b806106d957506301ffc9a760e01b6001600160e01b03198316146106d9565b6129628383612b4c565b61296f60008484846129d7565b61091e5760405162461bcd60e51b815260040161087d90613b0a565b611e4f84848484612ce5565b6129a081612e12565b6000818152600a6020526040902080546129b9906138e0565b15905061118c576000818152600a6020526040812061118c91613288565b60006001600160a01b0384163b15612acd57604051630a85bd0160e11b81526001600160a01b0385169063150b7a0290612a1b903390899088908890600401613b8b565b6020604051808303816000875af1925050508015612a56575060408051601f3d908101601f19168201909252612a5391810190613bbe565b60015b612ab3573d808015612a84576040519150601f19603f3d011682016040523d82523d6000602084013e612a89565b606091505b508051600003612aab5760405162461bcd60e51b815260040161087d90613b0a565b805181602001fd5b6001600160e01b031916630a85bd0160e11b149050612562565b506001949350505050565b6060612ae38261241e565b6000612afa60408051602081019091526000815290565b90506000815111612b1a5760405180602001604052806000815250612b45565b80612b2484612eb5565b604051602001612b35929190613b5c565b6040516020818303038152906040525b9392505050565b6001600160a01b038216612ba25760405162461bcd60e51b815260206004820181905260248201527f4552433732313a206d696e7420746f20746865207a65726f2061646472657373604482015260640161087d565b6000818152600260205260409020546001600160a01b031615612c075760405162461bcd60e51b815260206004820152601c60248201527f4552433732313a20746f6b656e20616c7265616479206d696e74656400000000604482015260640161087d565b612c1560008383600161298b565b6000818152600260205260409020546001600160a01b031615612c7a5760405162461bcd60e51b815260206004820152601c60248201527f4552433732313a20746f6b656e20616c7265616479206d696e74656400000000604482015260640161087d565b6001600160a01b038216600081815260036020908152604080832080546001019055848352600290915280822080546001600160a01b0319168417905551839291907fddf252ad1be2c89b69c2b068fc378daa952ba7f163c4a11628f55a4df523b3ef908290a45050565b6001811115612d545760405162461bcd60e51b815260206004820152603560248201527f455243373231456e756d657261626c653a20636f6e7365637574697665207472604482015274185b9cd9995c9cc81b9bdd081cdd5c1c1bdc9d1959605a1b606482015260840161087d565b816001600160a01b038516612db057612dab81600880546000838152600960205260408120829055600182018355919091527ff3f7a9fe364faab93b216da50a3214154f22a0a2b415b23a84c8169e8b636ee30155565b612dd3565b836001600160a01b0316856001600160a01b031614612dd357612dd38582612f48565b6001600160a01b038416612def57612dea81612fe5565b610d80565b846001600160a01b0316846001600160a01b031614610d8057610d808482613094565b6000612e1d826116d3565b9050612e2d81600084600161298b565b612e36826116d3565b600083815260046020908152604080832080546001600160a01b03199081169091556001600160a01b0385168085526003845282852080546000190190558785526002909352818420805490911690555192935084927fddf252ad1be2c89b69c2b068fc378daa952ba7f163c4a11628f55a4df523b3ef908390a45050565b60606000612ec2836130d8565b600101905060008167ffffffffffffffff811115612ee257612ee261336a565b6040519080825280601f01601f191660200182016040528015612f0c576020820181803683370190505b5090508181016020015b600019016f181899199a1a9b1b9c1cb0b131b232b360811b600a86061a8153600a8504945084612f1657509392505050565b60006001612f5584611866565b612f5f9190613bdb565b600083815260076020526040902054909150808214612fb2576001600160a01b03841660009081526006602090815260408083208584528252808320548484528184208190558352600790915290208190555b5060009182526007602090815260408084208490556001600160a01b039094168352600681528383209183525290812055565b600854600090612ff790600190613bdb565b6000838152600960205260408120546008805493945090928490811061301f5761301f613a6d565b90600052602060002001549050806008838154811061304057613040613a6d565b600091825260208083209091019290925582815260099091526040808220849055858252812055600880548061307857613078613bee565b6001900381819060005260206000200160009055905550505050565b600061309f83611866565b6001600160a01b039093166000908152600660209081526040808320868452825280832085905593825260079052919091209190915550565b60008072184f03e93ff9f4daa797ed6e38ed64bf6a1f0160401b83106131175772184f03e93ff9f4daa797ed6e38ed64bf6a1f0160401b830492506040015b6d04ee2d6d415b85acef81000000008310613143576d04ee2d6d415b85acef8100000000830492506020015b662386f26fc10000831061316157662386f26fc10000830492506010015b6305f5e1008310613179576305f5e100830492506008015b612710831061318d57612710830492506004015b6064831061319f576064830492506002015b600a83106106d95760010192915050565b508054600082556005029060005260206000209081019061118c91906132c2565b6040518060a001604052806000815260200160006001600160a01b0316815260200160008152602001600081526020016000600281111561321457613214613577565b905290565b6040518060a00160405280600081526020016060815260200160006001600160a01b0316815260200161326660405180606001604052806000815260200160608152602001606081525090565b8152602001613214604051806040016040528060008152602001600081525090565b508054613294906138e0565b6000825580601f106132a4575050565b601f01602090049060005260206000209081019061118c9190613306565b5b808211156133025760008082556001820180546001600160a01b031916905560028201819055600382015560048101805460ff191690556005016132c3565b5090565b5b808211156133025760008155600101613307565b6001600160e01b03198116811461118c57600080fd5b60006020828403121561334357600080fd5b8135612b458161331b565b80356001600160a01b038116811461336557600080fd5b919050565b634e487b7160e01b600052604160045260246000fd5b600067ffffffffffffffff8084111561339b5761339b61336a565b604051601f8501601f19908116603f011681019082821181831017156133c3576133c361336a565b816040528093508581528686860111156133dc57600080fd5b858560208301376000602087830101525050509392505050565b600082601f83011261340757600080fd5b612b4583833560208501613380565b6000806000806080858703121561342c57600080fd5b6134358561334e565b9350602085013567ffffffffffffffff8082111561345257600080fd5b61345e888389016133f6565b9450604087013591508082111561347457600080fd5b613480888389016133f6565b9350606087013591508082111561349657600080fd5b506134a3878288016133f6565b91505092959194509250565b60005b838110156134ca5781810151838201526020016134b2565b50506000910152565b600081518084526134eb8160208601602086016134af565b601f01601f19169290920160200192915050565b602081526000612b4560208301846134d3565b60006020828403121561352457600080fd5b5035919050565b6000806040838503121561353e57600080fd5b6135478361334e565b946020939093013593505050565b6000806040838503121561356857600080fd5b50508035926020909101359150565b634e487b7160e01b600052602160045260246000fd5b600381106135ab57634e487b7160e01b600052602160045260246000fd5b9052565b8581526001600160a01b0385166020820152604081018490526060810183905260a081016135e0608083018461358d565b9695505050505050565b6000806000606084860312156135ff57600080fd5b6136088461334e565b92506136166020850161334e565b9150604084013590509250925092565b60006020828403121561363857600080fd5b612b458261334e565b602080825282518282018190526000919060409081850190868401855b828110156136b757815180518552868101516001600160a01b031687860152858101518686015260608082015190860152608090810151906136a28187018361358d565b505060a093909301929085019060010161365e565b5091979650505050505050565b805182526000602082015160c060208501526136e360c08501826134d3565b905060018060a01b036040840151166040850152606083015184820360608601528051825260208101516060602084015261372160608401826134d3565b905060408201519150828103604084015261373c81836134d3565b92505050608083015180516080860152602081015160a0860152508091505092915050565b6000602080830181845280855180835260408601915060408160051b870101925083870160005b828110156137b657603f198886030184526137a48583516136c4565b94509285019290850190600101613788565b5092979650505050505050565b8381526060602082015260006137dc60608301856134d3565b82810360408401526135e081856134d3565b6000806040838503121561380157600080fd5b61380a8361334e565b91506020830135801515811461381f57600080fd5b809150509250929050565b6000806000806080858703121561384057600080fd5b6138498561334e565b93506138576020860161334e565b925060408501359150606085013567ffffffffffffffff81111561387a57600080fd5b8501601f8101871361388b57600080fd5b6134a387823560208401613380565b602081526000612b4560208301846136c4565b600080604083850312156138c057600080fd5b6138c98361334e565b91506138d76020840161334e565b90509250929050565b600181811c908216806138f457607f821691505b60208210810361391457634e487b7160e01b600052602260045260246000fd5b50919050565b601f82111561091e57600081815260208120601f850160051c810160208610156139415750805b601f850160051c820191505b818110156107485782815560010161394d565b815167ffffffffffffffff81111561397a5761397a61336a565b61398e8161398884546138e0565b8461391a565b602080601f8311600181146139c357600084156139ab5750858301515b600019600386901b1c1916600185901b178555610748565b600085815260208120601f198616915b828110156139f2578886015182559484019460019091019084016139d3565b5085821015613a105787850151600019600388901b60f8161c191681555b5050505050600190811b01905550565b6020808252602d908201527f4552433732313a2063616c6c6572206973206e6f7420746f6b656e206f776e6560408201526c1c881bdc88185c1c1c9bdd9959609a1b606082015260800190565b634e487b7160e01b600052603260045260246000fd5b634e487b7160e01b600052601160045260246000fd5b600060018201613aab57613aab613a83565b5060010190565b808201808211156106d9576106d9613a83565b60208082526025908201527f4552433732313a207472616e736665722066726f6d20696e636f72726563742060408201526437bbb732b960d91b606082015260800190565b60208082526032908201527f4552433732313a207472616e7366657220746f206e6f6e20455243373231526560408201527131b2b4bb32b91034b6b83632b6b2b73a32b960711b606082015260800190565b60008351613b6e8184602088016134af565b835190830190613b828183602088016134af565b01949350505050565b6001600160a01b03858116825284166020820152604081018390526080606082018190526000906135e0908301846134d3565b600060208284031215613bd057600080fd5b8151612b458161331b565b818103818111156106d9576106d9613a83565b634e487b7160e01b600052603160045260246000fdfea2646970667358221220b09982192688d084824e89c99c0f39f81ba67701b6bda6ed3d2fee606f5e757664736f6c63430008130033",
	"linkReferences": {},
	"deployedLinkReferences": {}
}